:100000000C943E000C945B000C945B000C945B0021
:100010000C945B000C945B000C945B000C945B00F4
:100020000C945B000C945B000C945B000C945B00E4
:100030000C945B000C9496040C945B000C945B0095
:100040000C945B000C945B000C945B000C945B00C4
:100050000C94BB040C945B000C945B000C945B0050
:100060000C945B000C945B000C945B000C945B00A4
:100070000C945B000C945B000C945B0011241FBE7D
:10008000CFEFD0E1DEBFCDBF11E0A0E0B1E0E0E610
:10009000FDE002C005900D92AE31B107D9F721E025
:1000A000AEE1B1E001C01D92A933B207E1F70E94B1
:1000B00048040C94AE060C94000084B1836B84B9A0
:1000C000289A81B1876081B9109A8AB1826F8AB902
:1000D0000895DF92EF92FF920F931F93CF93DF93D8
:1000E000E22F132FD42FC52FB62FF72FD82E092F7D
:1000F000119A129A12980F2EF4E2EF2EF12CF02D95
:100100002E2F217030E040E050E060E070E080E0B1
:1001100090E0A0E00E94800611F4119801C0119AAD
:100120002E2F312F4D2F5C2F6B2F7F2F8D2D902F4A
:1001300001E00E945206E22F132FD42FC52FB62FB5
:10014000F72FD82E092F129A129881E0E81AF10899
:10015000B9F6109A289ADF91CF911F910F91FF90D5
:10016000EF90DF9008954F925F926F927F928F92FF
:100170009F92AF92BF92CF92DF92EF92FF920F9336
:100180001F93CF93DF93CDB7DEB7A3970FB6F89445
:10019000DEBF0FBECDBF19821A821B821C821D8258
:1001A0001E821F82188619861A861B861C861D864B
:1001B0001E861F86188A198A1A8A1B8A1C8A1D8A1B
:1001C0001E8A1F8A2CE0E0E0F1E0DE0158960190E3
:1001D0000D922A95E1F76B017C0199233CF4CC2424
:1001E000DD247601C61AD70AE80AF90A99231CF415
:1001F0008BE08F8302C08AE08F8320EAC21626E854
:10020000D20621E0E206F1040CF44CC0C701B601AD
:1002100020EA36E841E050E00E9418062983C70131
:10022000B60120E137E240E050E00E9418060F2EB0
:10023000FAE08F2E912CA12CB12CF02DCA01B9011E
:10024000A50194010E9418066A83C701B60128EE31
:1002500033E040E050E00E941806CA01B901A50150
:1002600094010E9418066B83C701B60124E630E0B2
:1002700040E050E00E941806CA01B901A5019401AE
:100280000E9418066C83C701B601A50194010E9463
:100290001806162FCA01B901A50194010E9418067B
:1002A0006D831E8326013701D701C6018051974215
:1002B000A109B10980399F45A140B10508F045C0A9
:1002C0008F818983C701B60120E137E240E050E029
:1002D0000E9418060F2EFAE08F2E912CA12CB12C23
:1002E000F02DCA01B901A50194010E9418066A8384
:1002F000C701B60128EE33E040E050E00E94180646
:10030000CA01B901A50194010E9418066B83C701B7
:10031000B60124E630E040E050E00E941806CA0131
:10032000B901A50194010E9418066C83C701B601AA
:10033000A50194010E941806162FCA01B901A50152
:1003400094010E9418066D831E83D701C601885E42
:100350009340A109B10988329342A105B105C0F5C6
:100360008AE089838F818A83C701B60128EE33E052
:1003700040E050E00E9418060F2EFAE08F2E912CDC
:10038000A12CB12CF02DCA01B901A50194010E9444
:1003900018066B83C701B60124E630E040E050E068
:1003A0000E941806CA01B901A50194010E9418060D
:1003B0006C83C701B601A50194010E941806162F8F
:1003C000CA01B901A50194010E9418066D831E831C
:1003D000D701C60184569109A109B1098438934017
:1003E000A105B10550F58AE089838A838F818B83CB
:1003F000C701B60124E630E040E050E00E94180654
:100400000F2EFAE08F2E912CA12CB12CF02DCA01C9
:10041000B901A50194010E9418066C83C701B601B9
:10042000A50194010E941806162FCA01B901A50161
:1004300094010E9418066D831E83D701C6010A9796
:10044000A109B1098A359105A105B105E0F48AE059
:1004500089838A838B838F818C830F2EFAE08F2E82
:10046000912CA12CB12CF02DC701B601A50194014E
:100470000E941806162FCA01B901A50194010E9415
:1004800018066D831E838AE04816510461047104C6
:1004900080F48AE089838A838B838C838F818D8328
:1004A000C701B6012AE030E040E050E00E941806A3
:1004B0006E838E81E8E1F0E0EC0FFD1FE80FF11D87
:1004C0008080288539854A855B856C857D858E850C
:1004D0009F85ED81A8E1B0E0AC0FBD1FAE0FB11D4F
:1004E000FD019080F885A984BA84CB84DC84ED84F6
:1004F000FE841F85EC81A8E1B0E0AC0FBD1FAE0FFC
:10050000B11DBC91E885A985AA85AB85AC85AD8573
:10051000AE85AF85282900E10E943706A42F292D3A
:100520002F2B3A2D4B2D5C2D6D2D7E2D8F2D912F48
:1005300008E00E943706EB2B2E2B28873987AA87E5
:100540001B861C861D861E861F868B81E8E1F0E0D7
:10055000EC0FFD1FE80FF11D1081288939894A89A8
:100560005B896C897D898E899F89EA810F2EF8E1EC
:100570006F2E712CF02D6C0E7D1E6E0E711CF30112
:100580008080A8899988AA88BB88CC88DD88EE8875
:10059000FF88E9810F2EF8E16F2E712CF02D6C0E83
:1005A0007D1E6E0E711CF301B081E889F989FA890C
:1005B000FB89FC89FD89FE89FF89212B00E10E94CE
:1005C0003706F42F282D2A2B392D4A2D5B2D6C2D23
:1005D0007D2D8E2D9F2D08E00E943706EB2B2E2BB4
:1005E000288B398BFA8B1B8A1C8A1D8A1E8A1F8ACC
:1005F0002898288539854A855B856C857D858E851B
:100600009F850E9469001098288939894A895B89E9
:100610006C897D898E899F890E946900A3960FB697
:10062000F894DEBF0FBECDBFDF91CF911F910F9128
:10063000FF90EF90DF90CF90BF90AF909F908F9002
:100640007F906F905F904F9008958EE090E0909330
:10065000890080938800EFE6F0E0808182608083EB
:10066000E1E8F0E080818D60808308951092C500FC
:1006700087E08093C40088E98093C100E2ECF0E059
:100680008081866080830895CF93DF93F894809172
:100690002E0190912F01A0913001B09131018093F2
:1006A0002A0190932B01A0932C01B0932D017894F3
:1006B00080912A0190912B01A0912C01B0912D01E4
:1006C000282F392F4A2F5B2F60E070E080E090E008
:1006D000DF91CF9108952F923F924F925F926F9248
:1006E0007F928F929F92AF92BF92CF92DF92EF92C2
:1006F000FF920F931F93CF93DF9300D000D0CDB71D
:10070000DEB79A8389837C836B831816190624F4D9
:1007100081E08093290102C0109229010E944403C4
:10072000F22FE32F0091250110912601209127013E
:1007300030912801180129012F2F3E2FA22CB32C14
:10074000C42CD52CE12CF12C00E010E00E946E06A8
:10075000EB81FC811F01AE2EB32CC12CD12C0E9449
:10076000770608F466C080912901882311F18091F1
:10077000210190912201209123013091240189804F
:100780009A80820E931E88159905ACF52091200160
:100790002F5F2093200101969093220180932101E5
:1007A000243011F41092200190931F0180931E01B8
:1007B00022C0809121019091220120911E0130914F
:1007C0001F0189809A80820E931E881699069CF4D8
:1007D0002091200121502093200101979093220124
:1007E000809321012F3F19F423E02093200190935F
:1007F0002401809323010E94440320932501309318
:1008000026014093270150932801609121017091A6
:100810002201072E000C880B990B0E941F052BED5F
:1008200039EF4EEF5EE30E9483050E94E7040E94C9
:10083000B30080912001811102C080E98BB98091C1
:100840002001813011F480EA8BB98091200182303F
:1008500011F480E68BB980912001833011F480E59A
:100860008BB90F900F900F900F90DF91CF911F9148
:100870000F91FF90EF90DF90CF90BF90AF909F903F
:100880008F907F906F905F904F903F902F90089542
:10089000CF93DF93CDB7DEB728970FB6F894DEBFBE
:1008A0000FBECDBF0E945D000E9436030E9425034B
:1008B000789480E090E0DC010F2EFCE44F2E55246C
:1008C0005A94652C752CF02D8C019D0189831A8317
:1008D0002B833C8365E070E0C2010E946B030E94A1
:1008E0004403A980BA80CB80DC80E12CF12C00E0AD
:1008F00010E00E946E062B3D354041055105610513
:1009000071058105910531F328F37094609450943A
:100910004094411C511C611C711C0E944403F22F25
:10092000E32F8F2F9E2FA42FB52FCECF1F920F9284
:100930000FB60F9211248F939F93AF93BF93809123
:100940002E0190912F01A0913001B09131010196BB
:10095000A11DB11D80932E0190932F01A093300112
:10096000B0933101BF91AF919F918F910F900FBEC6
:100970000F901F9018951F920F920FB60F9211248F
:100980008F939F93EF93FF939091C600E091320174
:1009900081E08E0F80933201F0E0ED5CFE4F90839A
:1009A000843011F410923201809137018F5F8430CE
:1009B00019F08093370102C010923701FF91EF9137
:1009C0009F918F910F900FBE0F901F9018950E94CE
:1009D000EE046894B1110C947D0508950E9462059F
:1009E00088F09F5798F0B92F9927B751B0F0E1F0F0
:1009F000660F771F881F991F1AF0BA95C9F714C0A0
:100A0000B13091F00E947C05B1E008950C947C0512
:100A1000672F782F8827B85F39F0B93FCCF38695D8
:100A200077956795B395D9F73EF490958095709535
:100A300061957F4F8F4F9F4F0895E89409C097FBB2
:100A40003EF490958095709561957F4F8F4F9F4FA5
:100A50009923A9F0F92F96E9BB279395F6958795E9
:100A600077956795B795F111F8CFFAF4BB0F11F4AC
:100A700060FF1BC06F5F7F4F8F4F9F4F16C0882353
:100A800011F096E911C0772321F09EE8872F762F89
:100A900005C0662371F096E8862F70E060E02AF0CA
:100AA0009A95660F771F881FDAF7880F96958795B6
:100AB00097F9089557FD9058440F551F59F05F3F1F
:100AC00071F04795880F97FB991F61F09F3F79F070
:100AD00087950895121613061406551FF2CF4695F2
:100AE000F1DF08C0161617061806991FF1CF869574
:100AF0007105610508940895E894BB276627772758
:100B0000CB0197F908950E9496050C9407060E9460
:100B1000F90538F00E94000620F0952311F00C949E
:100B2000F0050C94F60511240C947D050E945A05DD
:100B300070F3959FC1F3950F50E0551F629FF00130
:100B4000729FBB27F00DB11D639FAA27F00DB11D49
:100B5000AA1F649F6627B00DA11D661F829F2227D2
:100B6000B00DA11D621F739FB00DA11D621F839F59
:100B7000A00D611D221F749F3327A00D611D231F2F
:100B8000849F600D211D822F762F6A2F11249F577D
:100B900050409AF0F1F088234AF0EE0FFF1FBB1F80
:100BA000661F771F881F91505040A9F79E3F51053F
:100BB00080F00C94F0050C947D055F3FE4F3983EC3
:100BC000D4F3869577956795B795F795E7959F5FE9
:100BD000C1F7FE2B880F911D9695879597F908957B
:100BE00097F99F6780E870E060E008959FEF80ECE0
:100BF000089500240A941616170618060906089583
:100C000000240A9412161306140605060895092EE8
:100C10000394000C11F4882352F0BB0F40F4BF2B57
:100C200011F460FF04C06F5F7F4F8F4F9F4F089597
:100C3000052E97FB1EF400940E942F0657FD07D047
:100C40000E948C0607FC03D04EF40C942F0650959E
:100C50004095309521953F4F4F4F5F4F08959095A8
:100C60008095709561957F4F8F4F9F4F08950F939B
:100C7000083090F0982F872F762F652F542F432F11
:100C8000322F22270850F4CF220F331F441F551F45
:100C9000661F771F881F991F0A95B2F70F91089555
:100CA00097FB10F8169400080F93083098F008503E
:100CB000232F342F452F562F672F782F892F902DD4
:100CC000F4CF0594979587957795679557954795B0
:100CD000379527950A95AAF70F9108952A193B0988
:100CE0004C095D096E097F09800B910B08952A1547
:100CF0003B054C055D056E057F058007910708954E
:100D00000024A7FD00942A17300540055005600512
:100D10007005800590050895A1E21A2EAA1BBB1B41
:100D2000FD010DC0AA1FBB1FEE1FFF1FA217B307B7
:100D3000E407F50720F0A21BB30BE40BF50B661FCD
:100D4000771F881F991F1A9469F760957095809591
:100D500090959B01AC01BD01CF010895F894FFCFA0
:100D60003F065B4F666D7D077F6F00403F777C39A4
:0E0D70005E79713D065B4F666D7D077F6F00FB
:00000001FF
