:100000000C9479000C94A1000C94A1000C94A10014
:100010000C94A1000C94A1000C94A1000C94A100DC
:100020000C94A1000C94A1000C94A1000C94A100CC
:100030000C94A1000C9483010C94A1000C94A100D9
:100040000C94A1000C94A1000C9433010C94A10019
:100050000C94A1000C94A1000C94A1000C94A1009C
:100060000C94A1000C94A1000C94A1000C94A1008C
:100070000C94A1000C94A1000C94A10000000000BD
:100080000000000000000000000000000000000070
:100090000403080700000001020000000000220025
:1000A000250028002B0000002100240027002A0042
:1000B0000303030303030303010101010101010120
:1000C0000404040404040404020202020202020200
:1000D0000102040810204080010204081020408022
:1000E0000102040810204080010204081020408012
:1000F000430311241FBECFEFD0E1DEBFCDBF11E01F
:10010000A0E0B1E0EEECF7E002C005900D92A03067
:10011000B107D9F721E0A0E0B1E001C01D92A432FF
:10012000B207E1F710E0C9E7D0E004C02197FE0173
:100130000E94DF03C837D107C9F70E94D2010C948F
:10014000E5030C94000090E0FC01E053FF4F249184
:10015000FC01E055FF4F8491882399F090E0880FCF
:10016000991FFC01EA55FF4FA591B491FC01E4569B
:10017000FF4F859194918FB7F894EC91E22BEC931B
:100180008FBF089590E0FC01E458FF4F3491FC01CB
:10019000E053FF4F2491FC01E055FF4FE491EE2323
:1001A00009F43BC0332339F1333091F038F4313066
:1001B000A9F0323001F584B58F7D12C0373091F04F
:1001C0003830A1F03430B9F4809180008F7D03C0C5
:1001D000809180008F77809380000DC084B58F77E9
:1001E00084BD09C08091B0008F7703C08091B000BA
:1001F0008F7D8093B000F0E0EE0FFF1FE456FF4FBD
:10020000A591B4918FB7F894EC91611103C020953A
:100210002E2301C02E2B2C938FBF08953FB7F89447
:100220008091020190910301A0910401B091050118
:1002300026B5A89B05C02F3F19F00196A11DB11D41
:100240003FBFBA2FA92F982F8827820F911DA11D7C
:10025000B11DBC01CD0142E0660F771F881F991FB9
:100260004A95D1F708950C9435011F920F920FB65D
:100270000F9211244F935F936F937F938F939F936C
:10028000AF93BF934091060150910701609108011F
:100290007091090180910101803D30F0805D4E5FD9
:1002A0005F4F6F4F7F4F05C04F5F5F4F6F4F7F4F67
:1002B000865D80930101409306015093070160938E
:1002C0000801709309018091020190910301A091AE
:1002D0000401B09105010196A11DB11D8093020199
:1002E00090930301A0930401B0930501BF91AF91D6
:1002F0009F918F917F916F915F914F910F900FBE62
:100300000F901F9018951F920F920FB60F92112405
:100310002F938F939F938091000187FF05C01092C8
:1003200085001092840005C08091000187FD8091B6
:100330000001809100018F5F809300018091000196
:1003400087FF11C0809100018C306CF48091840093
:1003500090918500209100019093890080938800FE
:100360008091000117C080918400909185000496CF
:10037000883B984818F488EB98E805C08091840081
:1003800090918500049690938900809388008FEF68
:10039000809300019F918F912F910F900FBE0F902E
:1003A0001F901895789484B5826084BD84B581606F
:1003B00084BD85B5826085BD85B5816085BD809130
:1003C0006E00816080936E001092810080918100A8
:1003D00082608093810080918100816080938100A0
:1003E000809180008160809380008091B100846062
:1003F0008093B1008091B00081608093B0008091C3
:100400007A00846080937A0080917A008260809381
:100410007A0080917A008E7F80937A0080917A00B2
:10042000806880937A001092C1002091120130916F
:100430001301032E000C440B550B60E67AEE80E0AE
:1004400090E00E947603CA01B90124E630E040E062
:1004500050E00E94760320930E0130930F014093E9
:1004600010015093110181E090E090930B01809373
:100470000A0100EA10E094E0E92EF12C01151105C3
:1004800009F4DFC02FB7F89480910601909107011D
:10049000A0910801B09109012FBF40912001509116
:1004A00021016091220170912301841B950BA60B01
:1004B000B70B40910E0150910F01609110017091A6
:1004C000110184179507A607B707C0F22FB7F89454
:1004D0008091060190910701A0910801B091090156
:1004E0002FBF8093200190932101A0932201B0930C
:1004F000230120910A0130910B0180911601909106
:1005000017012130310589F40196909317018093EA
:100510001601209112013091130182179307C1F443
:10052000109217011092160113C0892B41F480918B
:1005300012019091130190931701809316018091FD
:10054000160190911701019790931701809316015E
:10055000015011098091160190911701B7010E9475
:10056000B703EC018091140190911501029709F5F0
:10057000C130D10569F024F42097D9F460E009C0B6
:10058000C230D10561F0C330D10599F460E008C0F4
:1005900061E0809118010E94C20061E006C061E044
:1005A000809118010E94C20060E080911A010E94AF
:1005B000C2008091140190911501049709F05ECF5B
:1005C000C130D105C1F054F4CD2B09F057CF61E013
:1005D000809118010E94C20060E013C0C230D105B2
:1005E000D9F0239709F04ACF61E0809118010E9469
:1005F000C20060E017C060E0809118010E94C20054
:1006000061E080911A010E94C20061E080911C01AA
:100610000E94C20060E010C060E0809118010E945A
:10062000C20061E080911A010E94C20060E08091E6
:100630001C010E94C20061E080911E010E94C20064
:100640001DCF0E940E01EB0184E6C82ED12CE12CB7
:10065000F12C0E940E016C1B7D0B683E734038F03C
:1006600081E0C81AD108E108F108C851DC4FC11473
:10067000D104E104F10469F7C0E0D0E02097F1F380
:100680000E940000FBCFCF93DF93CAE0D1E01D862C
:100690001C861B821A82198218821E8A1F8A188E53
:1006A000198E84E190E0998788871F861E8681E0F5
:1006B00090E0998B888B82E090E09B8B8A8B83E023
:1006C00090E09D8B8C8B80E00E94A30088890E9423
:1006D000A3008A890E94A3008C890E94A30084E061
:1006E00090E09B878A87DF91CF910895052E97FB35
:1006F0001EF400940E948D0357FD07D00E949503BD
:1007000007FC03D04EF40C948D0350954095309522
:1007100021953F4F4F4F5F4F08959095809570956D
:1007200061957F4F8F4F9F4F0895A1E21A2EAA1B0C
:10073000BB1BFD010DC0AA1FBB1FEE1FFF1FA21791
:10074000B307E407F50720F0A21BB30BE40BF50B8E
:10075000661F771F881F991F1A9469F76095709517
:10076000809590959B01AC01BD01CF01089597FB49
:10077000072E16F4009407D077FD09D00E94CB0312
:1007800007FC05D03EF4909581959F4F0895709594
:1007900061957F4F0895AA1BBB1B51E107C0AA1F9B
:1007A000BB1FA617B70710F0A61BB70B881F991F12
:1007B0005A95A9F780959095BC01CD010895EE0F4B
:0E07C000FF1F0590F491E02D0994F894FFCFEF
:00000001FF
